{
  "contractName": "GetPresident",
  "abi": [
    {
      "inputs": [],
      "stateMutability": "nonpayable",
      "type": "constructor"
    },
    {
      "anonymous": false,
      "inputs": [
        {
          "indexed": true,
          "internalType": "bytes32",
          "name": "id",
          "type": "bytes32"
        }
      ],
      "name": "ChainlinkCancelled",
      "type": "event"
    },
    {
      "anonymous": false,
      "inputs": [
        {
          "indexed": true,
          "internalType": "bytes32",
          "name": "id",
          "type": "bytes32"
        }
      ],
      "name": "ChainlinkFulfilled",
      "type": "event"
    },
    {
      "anonymous": false,
      "inputs": [
        {
          "indexed": true,
          "internalType": "bytes32",
          "name": "id",
          "type": "bytes32"
        }
      ],
      "name": "ChainlinkRequested",
      "type": "event"
    },
    {
      "anonymous": false,
      "inputs": [
        {
          "indexed": true,
          "internalType": "address",
          "name": "from",
          "type": "address"
        },
        {
          "indexed": true,
          "internalType": "address",
          "name": "to",
          "type": "address"
        }
      ],
      "name": "OwnershipTransferRequested",
      "type": "event"
    },
    {
      "anonymous": false,
      "inputs": [
        {
          "indexed": true,
          "internalType": "address",
          "name": "from",
          "type": "address"
        },
        {
          "indexed": true,
          "internalType": "address",
          "name": "to",
          "type": "address"
        }
      ],
      "name": "OwnershipTransferred",
      "type": "event"
    },
    {
      "anonymous": false,
      "inputs": [
        {
          "indexed": true,
          "internalType": "bytes32",
          "name": "requestId",
          "type": "bytes32"
        },
        {
          "indexed": false,
          "internalType": "bytes",
          "name": "volume",
          "type": "bytes"
        }
      ],
      "name": "RequestVolume",
      "type": "event"
    },
    {
      "inputs": [],
      "name": "acceptOwnership",
      "outputs": [],
      "stateMutability": "nonpayable",
      "type": "function"
    },
    {
      "inputs": [],
      "name": "owner",
      "outputs": [
        {
          "internalType": "address",
          "name": "",
          "type": "address"
        }
      ],
      "stateMutability": "view",
      "type": "function",
      "constant": true
    },
    {
      "inputs": [],
      "name": "president",
      "outputs": [
        {
          "internalType": "address",
          "name": "",
          "type": "address"
        }
      ],
      "stateMutability": "view",
      "type": "function",
      "constant": true
    },
    {
      "inputs": [
        {
          "internalType": "address",
          "name": "to",
          "type": "address"
        }
      ],
      "name": "transferOwnership",
      "outputs": [],
      "stateMutability": "nonpayable",
      "type": "function"
    },
    {
      "inputs": [],
      "name": "requestVolumeData",
      "outputs": [
        {
          "internalType": "bytes32",
          "name": "requestId",
          "type": "bytes32"
        }
      ],
      "stateMutability": "nonpayable",
      "type": "function"
    },
    {
      "inputs": [
        {
          "internalType": "bytes32",
          "name": "_requestId",
          "type": "bytes32"
        },
        {
          "internalType": "bytes",
          "name": "_volume",
          "type": "bytes"
        }
      ],
      "name": "fulfill",
      "outputs": [],
      "stateMutability": "nonpayable",
      "type": "function"
    },
    {
      "inputs": [],
      "name": "withdrawLink",
      "outputs": [],
      "stateMutability": "nonpayable",
      "type": "function"
    }
  ],
  "bytecode": "0x608060405260016004553480156200001657600080fd5b50338060008073ffffffffffffffffffffffffffffffffffffffff168273ffffffffffffffffffffffffffffffffffffffff16036200008c576040517f08c379a00000000000000000000000000000000000000000000000000000000081526004016200008390620003d3565b60405180910390fd5b81600660006101000a81548173ffffffffffffffffffffffffffffffffffffffff021916908373ffffffffffffffffffffffffffffffffffffffff160217905550600073ffffffffffffffffffffffffffffffffffffffff168173ffffffffffffffffffffffffffffffffffffffff161462000114576200011381620001b960201b60201c565b5b5050506200013c73326c977e6efc84e512bb9c30f76e30c160ed06fb620002ea60201b60201c565b620001617340193c8518bb267228fc409a613bdbd8ec5a97b36200032e60201b60201c565b7f3764613237303266333766643438653562316239613537313565333530396236600981905550600a670de0b6b3a76400006001620001a191906200042e565b620001ad9190620004a8565b600a8190555062000552565b3373ffffffffffffffffffffffffffffffffffffffff168173ffffffffffffffffffffffffffffffffffffffff16036200022a576040517f08c379a0000000000000000000000000000000000000000000000000000000008152600401620002219062000530565b60405180910390fd5b80600760006101000a81548173ffffffffffffffffffffffffffffffffffffffff021916908373ffffffffffffffffffffffffffffffffffffffff1602179055508073ffffffffffffffffffffffffffffffffffffffff16600660009054906101000a900473ffffffffffffffffffffffffffffffffffffffff1673ffffffffffffffffffffffffffffffffffffffff167fed8889f560326eb138920d842192f0eb3dd22b4f139c87a2c57538e05bae127860405160405180910390a350565b80600260006101000a81548173ffffffffffffffffffffffffffffffffffffffff021916908373ffffffffffffffffffffffffffffffffffffffff16021790555050565b80600360006101000a81548173ffffffffffffffffffffffffffffffffffffffff021916908373ffffffffffffffffffffffffffffffffffffffff16021790555050565b600082825260208201905092915050565b7f43616e6e6f7420736574206f776e657220746f207a65726f0000000000000000600082015250565b6000620003bb60188362000372565b9150620003c88262000383565b602082019050919050565b60006020820190508181036000830152620003ee81620003ac565b9050919050565b6000819050919050565b7f4e487b7100000000000000000000000000000000000000000000000000000000600052601160045260246000fd5b60006200043b82620003f5565b91506200044883620003f5565b92508282026200045881620003f5565b91508282048414831517620004725762000471620003ff565b5b5092915050565b7f4e487b7100000000000000000000000000000000000000000000000000000000600052601260045260246000fd5b6000620004b582620003f5565b9150620004c283620003f5565b925082620004d557620004d462000479565b5b828204905092915050565b7f43616e6e6f74207472616e7366657220746f2073656c66000000000000000000600082015250565b60006200051860178362000372565b91506200052582620004e0565b602082019050919050565b600060208201905081810360008301526200054b8162000509565b9050919050565b611ee680620005626000396000f3fe608060405234801561001057600080fd5b506004361061007d5760003560e01c80637c1de7e11161005b5780637c1de7e1146100c85780638da5cb5b146100e45780638dc654a214610102578063f2fde38b1461010c5761007d565b8063324a1376146100825780636021abac146100a057806379ba5097146100be575b600080fd5b61008a610128565b60405161009791906111f4565b60405180910390f35b6100a861014e565b6040516100b59190611228565b60405180910390f35b6100c661025a565b005b6100e260048036038101906100dd91906113c9565b6103f1565b005b6100ec610580565b6040516100f991906111f4565b60405180910390f35b61010a6105aa565b005b61012660048036038101906101219190611451565b6106f7565b005b600860009054906101000a900473ffffffffffffffffffffffffffffffffffffffff1681565b60008061016560095430637c1de7e160e01b61070b565b90506101c96040518060400160405280600381526020017f67657400000000000000000000000000000000000000000000000000000000008152506040518060800160405280604d8152602001611e64604d91398361073c9092919063ffffffff16565b6102486040518060400160405280600481526020017f70617468000000000000000000000000000000000000000000000000000000008152506040518060400160405280600681526020017f77616c6c657400000000000000000000000000000000000000000000000000008152508361073c9092919063ffffffff16565b61025481600a5461076f565b91505090565b600760009054906101000a900473ffffffffffffffffffffffffffffffffffffffff1673ffffffffffffffffffffffffffffffffffffffff163373ffffffffffffffffffffffffffffffffffffffff16146102ea576040517f08c379a00000000000000000000000000000000000000000000000000000000081526004016102e1906114db565b60405180910390fd5b6000600660009054906101000a900473ffffffffffffffffffffffffffffffffffffffff16905033600660006101000a81548173ffffffffffffffffffffffffffffffffffffffff021916908373ffffffffffffffffffffffffffffffffffffffff1602179055506000600760006101000a81548173ffffffffffffffffffffffffffffffffffffffff021916908373ffffffffffffffffffffffffffffffffffffffff1602179055503373ffffffffffffffffffffffffffffffffffffffff168173ffffffffffffffffffffffffffffffffffffffff167f8be0079c531659141344cd1fd0a4f28419497f9722a3daafe3b4186f6b6457e060405160405180910390a350565b816005600082815260200190815260200160002060009054906101000a900473ffffffffffffffffffffffffffffffffffffffff1673ffffffffffffffffffffffffffffffffffffffff163373ffffffffffffffffffffffffffffffffffffffff1614610493576040517f08c379a000000000000000000000000000000000000000000000000000000000815260040161048a9061156d565b60405180910390fd5b6005600082815260200190815260200160002060006101000a81549073ffffffffffffffffffffffffffffffffffffffff0219169055807f7cc135e0cebb02c3480ae5d74d377283180a2601f8f644edf7987b009316c63a60405160405180910390a2827ff3d5a4efb21f088bd38a19b78cd9e35d1c15d3df7370b7e60a55f8b4fcd4601183604051610526919061160c565b60405180910390a2816105389061168c565b60601c600860006101000a81548173ffffffffffffffffffffffffffffffffffffffff021916908373ffffffffffffffffffffffffffffffffffffffff160217905550505050565b6000600660009054906101000a900473ffffffffffffffffffffffffffffffffffffffff16905090565b6105b26107a6565b60006105bc610838565b90508073ffffffffffffffffffffffffffffffffffffffff1663a9059cbb338373ffffffffffffffffffffffffffffffffffffffff166370a08231306040518263ffffffff1660e01b815260040161061491906111f4565b602060405180830381865afa158015610631573d6000803e3d6000fd5b505050506040513d601f19601f820116820180604052508101906106559190611729565b6040518363ffffffff1660e01b8152600401610672929190611765565b6020604051808303816000875af1158015610691573d6000803e3d6000fd5b505050506040513d601f19601f820116820180604052508101906106b591906117c6565b6106f4576040517f08c379a00000000000000000000000000000000000000000000000000000000081526004016106eb9061183f565b60405180910390fd5b50565b6106ff6107a6565b61070881610862565b50565b61071361112c565b61071b61112c565b61073285858584610990909392919063ffffffff16565b9150509392505050565b610753828460800151610a4090919063ffffffff16565b61076a818460800151610a4090919063ffffffff16565b505050565b600061079e600360009054906101000a900473ffffffffffffffffffffffffffffffffffffffff168484610a65565b905092915050565b600660009054906101000a900473ffffffffffffffffffffffffffffffffffffffff1673ffffffffffffffffffffffffffffffffffffffff163373ffffffffffffffffffffffffffffffffffffffff1614610836576040517f08c379a000000000000000000000000000000000000000000000000000000000815260040161082d906118ab565b60405180910390fd5b565b6000600260009054906101000a900473ffffffffffffffffffffffffffffffffffffffff16905090565b3373ffffffffffffffffffffffffffffffffffffffff168173ffffffffffffffffffffffffffffffffffffffff16036108d0576040517f08c379a00000000000000000000000000000000000000000000000000000000081526004016108c790611917565b60405180910390fd5b80600760006101000a81548173ffffffffffffffffffffffffffffffffffffffff021916908373ffffffffffffffffffffffffffffffffffffffff1602179055508073ffffffffffffffffffffffffffffffffffffffff16600660009054906101000a900473ffffffffffffffffffffffffffffffffffffffff1673ffffffffffffffffffffffffffffffffffffffff167fed8889f560326eb138920d842192f0eb3dd22b4f139c87a2c57538e05bae127860405160405180910390a350565b61099861112c565b6109a88560800151610100610b31565b508385600001818152505082856020019073ffffffffffffffffffffffffffffffffffffffff16908173ffffffffffffffffffffffffffffffffffffffff16815250508185604001907bffffffffffffffffffffffffffffffffffffffffffffffffffffffff191690817bffffffffffffffffffffffffffffffffffffffffffffffffffffffff191681525050849050949350505050565b610a4d8260038351610b9b565b610a608183610d2090919063ffffffff16565b505050565b6000806004549050600181610a7a9190611966565b6004819055506000634042994660e01b60008087600001513089604001518760018c6080015160000151604051602401610abb9897969594939291906119d5565b604051602081830303815290604052907bffffffffffffffffffffffffffffffffffffffffffffffffffffffff19166020820180517bffffffffffffffffffffffffffffffffffffffffffffffffffffffff83818316178352505050509050610b2686838684610d42565b925050509392505050565b610b39611199565b6000602083610b489190611a89565b14610b7457602082610b5a9190611a89565b6020610b669190611aba565b82610b719190611966565b91505b81836020018181525050604051808452600081528281016020016040525082905092915050565b60178167ffffffffffffffff1611610bd257610bcc8160058460ff16901b60ff161784610ed790919063ffffffff16565b50610d1b565b60ff8167ffffffffffffffff1611610c2857610c01601860058460ff16901b1784610ed790919063ffffffff16565b50610c228167ffffffffffffffff16600185610ef79092919063ffffffff16565b50610d1a565b61ffff8167ffffffffffffffff1611610c7f57610c58601960058460ff16901b1784610ed790919063ffffffff16565b50610c798167ffffffffffffffff16600285610ef79092919063ffffffff16565b50610d19565b63ffffffff8167ffffffffffffffff1611610cd857610cb1601a60058460ff16901b1784610ed790919063ffffffff16565b50610cd28167ffffffffffffffff16600485610ef79092919063ffffffff16565b50610d18565b610cf5601b60058460ff16901b1784610ed790919063ffffffff16565b50610d168167ffffffffffffffff16600885610ef79092919063ffffffff16565b505b5b5b5b505050565b610d28611199565b610d3a83846000015151848551610f19565b905092915050565b60003084604051602001610d57929190611ba7565b604051602081830303815290604052805190602001209050846005600083815260200190815260200160002060006101000a81548173ffffffffffffffffffffffffffffffffffffffff021916908373ffffffffffffffffffffffffffffffffffffffff160217905550807fb5e6e01e79f91267dc17b4e6314d5d4d03593d2ceee0fbb452b750bd70ea5af960405160405180910390a2600260009054906101000a900473ffffffffffffffffffffffffffffffffffffffff1673ffffffffffffffffffffffffffffffffffffffff16634000aea08685856040518463ffffffff1660e01b8152600401610e4d93929190611bd3565b6020604051808303816000875af1158015610e6c573d6000803e3d6000fd5b505050506040513d601f19601f82011682018060405250810190610e9091906117c6565b610ecf576040517f08c379a0000000000000000000000000000000000000000000000000000000008152600401610ec690611c83565b60405180910390fd5b949350505050565b610edf611199565b610eef8384600001515184611008565b905092915050565b610eff611199565b610f1084856000015151858561105e565b90509392505050565b610f21611199565b8251821115610f2f57600080fd5b84602001518285610f409190611966565b1115610f7557610f74856002610f6588602001518887610f609190611966565b6110ec565b610f6f9190611ca3565b611108565b5b600080865180518760208301019350808887011115610f945787860182525b60208701925050505b60208410610fdb5780518252602082610fb69190611966565b9150602081610fc59190611966565b9050602084610fd49190611aba565b9350610f9d565b60006001856020036101000a03905080198251168184511681811785525050508692505050949350505050565b611010611199565b836020015183106110365761103584600286602001516110309190611ca3565b611108565b5b83518051602085830101848153818603611051576001820183525b5050508390509392505050565b611066611199565b846020015184836110779190611966565b111561109f5761109e856002868561108f9190611966565b6110999190611ca3565b611108565b5b60006001836101006110b19190611e18565b6110bb9190611aba565b905085518386820101858319825116178152815185880111156110de5784870182525b505085915050949350505050565b6000818311156110fe57829050611102565b8190505b92915050565b60008260000151905061111b8383610b31565b506111268382610d20565b50505050565b6040518060a0016040528060008019168152602001600073ffffffffffffffffffffffffffffffffffffffff16815260200160007bffffffffffffffffffffffffffffffffffffffffffffffffffffffff1916815260200160008152602001611193611199565b81525090565b604051806040016040528060608152602001600081525090565b600073ffffffffffffffffffffffffffffffffffffffff82169050919050565b60006111de826111b3565b9050919050565b6111ee816111d3565b82525050565b600060208201905061120960008301846111e5565b92915050565b6000819050919050565b6112228161120f565b82525050565b600060208201905061123d6000830184611219565b92915050565b6000604051905090565b600080fd5b600080fd5b6112608161120f565b811461126b57600080fd5b50565b60008135905061127d81611257565b92915050565b600080fd5b600080fd5b6000601f19601f8301169050919050565b7f4e487b7100000000000000000000000000000000000000000000000000000000600052604160045260246000fd5b6112d68261128d565b810181811067ffffffffffffffff821117156112f5576112f461129e565b5b80604052505050565b6000611308611243565b905061131482826112cd565b919050565b600067ffffffffffffffff8211156113345761133361129e565b5b61133d8261128d565b9050602081019050919050565b82818337600083830152505050565b600061136c61136784611319565b6112fe565b90508281526020810184848401111561138857611387611288565b5b61139384828561134a565b509392505050565b600082601f8301126113b0576113af611283565b5b81356113c0848260208601611359565b91505092915050565b600080604083850312156113e0576113df61124d565b5b60006113ee8582860161126e565b925050602083013567ffffffffffffffff81111561140f5761140e611252565b5b61141b8582860161139b565b9150509250929050565b61142e816111d3565b811461143957600080fd5b50565b60008135905061144b81611425565b92915050565b6000602082840312156114675761146661124d565b5b60006114758482850161143c565b91505092915050565b600082825260208201905092915050565b7f4d7573742062652070726f706f736564206f776e657200000000000000000000600082015250565b60006114c560168361147e565b91506114d08261148f565b602082019050919050565b600060208201905081810360008301526114f4816114b8565b9050919050565b7f536f75726365206d75737420626520746865206f7261636c65206f662074686560008201527f2072657175657374000000000000000000000000000000000000000000000000602082015250565b600061155760288361147e565b9150611562826114fb565b604082019050919050565b600060208201905081810360008301526115868161154a565b9050919050565b600081519050919050565b600082825260208201905092915050565b60005b838110156115c75780820151818401526020810190506115ac565b60008484015250505050565b60006115de8261158d565b6115e88185611598565b93506115f88185602086016115a9565b6116018161128d565b840191505092915050565b6000602082019050818103600083015261162681846115d3565b905092915050565b6000819050602082019050919050565b60007fffffffffffffffffffffffffffffffffffffffff00000000000000000000000082169050919050565b6000611676825161163e565b80915050919050565b600082821b905092915050565b60006116978261158d565b826116a18461162e565b90506116ac8161166a565b925060148210156116ec576116e77fffffffffffffffffffffffffffffffffffffffff0000000000000000000000008360140360080261167f565b831692505b5050919050565b6000819050919050565b611706816116f3565b811461171157600080fd5b50565b600081519050611723816116fd565b92915050565b60006020828403121561173f5761173e61124d565b5b600061174d84828501611714565b91505092915050565b61175f816116f3565b82525050565b600060408201905061177a60008301856111e5565b6117876020830184611756565b9392505050565b60008115159050919050565b6117a38161178e565b81146117ae57600080fd5b50565b6000815190506117c08161179a565b92915050565b6000602082840312156117dc576117db61124d565b5b60006117ea848285016117b1565b91505092915050565b7f556e61626c6520746f207472616e736665720000000000000000000000000000600082015250565b600061182960128361147e565b9150611834826117f3565b602082019050919050565b600060208201905081810360008301526118588161181c565b9050919050565b7f4f6e6c792063616c6c61626c65206279206f776e657200000000000000000000600082015250565b600061189560168361147e565b91506118a08261185f565b602082019050919050565b600060208201905081810360008301526118c481611888565b9050919050565b7f43616e6e6f74207472616e7366657220746f2073656c66000000000000000000600082015250565b600061190160178361147e565b915061190c826118cb565b602082019050919050565b60006020820190508181036000830152611930816118f4565b9050919050565b7f4e487b7100000000000000000000000000000000000000000000000000000000600052601160045260246000fd5b6000611971826116f3565b915061197c836116f3565b925082820190508082111561199457611993611937565b5b92915050565b60007fffffffff0000000000000000000000000000000000000000000000000000000082169050919050565b6119cf8161199a565b82525050565b6000610100820190506119eb600083018b6111e5565b6119f8602083018a611756565b611a056040830189611219565b611a1260608301886111e5565b611a1f60808301876119c6565b611a2c60a0830186611756565b611a3960c0830185611756565b81810360e0830152611a4b81846115d3565b90509998505050505050505050565b7f4e487b7100000000000000000000000000000000000000000000000000000000600052601260045260246000fd5b6000611a94826116f3565b9150611a9f836116f3565b925082611aaf57611aae611a5a565b5b828206905092915050565b6000611ac5826116f3565b9150611ad0836116f3565b9250828203905081811115611ae857611ae7611937565b5b92915050565b6000819050919050565b6000611b13611b0e611b09846111b3565b611aee565b6111b3565b9050919050565b6000611b2582611af8565b9050919050565b6000611b3782611b1a565b9050919050565b60008160601b9050919050565b6000611b5682611b3e565b9050919050565b6000611b6882611b4b565b9050919050565b611b80611b7b82611b2c565b611b5d565b82525050565b6000819050919050565b611ba1611b9c826116f3565b611b86565b82525050565b6000611bb38285611b6f565b601482019150611bc38284611b90565b6020820191508190509392505050565b6000606082019050611be860008301866111e5565b611bf56020830185611756565b8181036040830152611c0781846115d3565b9050949350505050565b7f756e61626c6520746f207472616e73666572416e6443616c6c20746f206f726160008201527f636c650000000000000000000000000000000000000000000000000000000000602082015250565b6000611c6d60238361147e565b9150611c7882611c11565b604082019050919050565b60006020820190508181036000830152611c9c81611c60565b9050919050565b6000611cae826116f3565b9150611cb9836116f3565b9250828202611cc7816116f3565b91508282048414831517611cde57611cdd611937565b5b5092915050565b60008160011c9050919050565b6000808291508390505b6001851115611d3c57808604811115611d1857611d17611937565b5b6001851615611d275780820291505b8081029050611d3585611ce5565b9450611cfc565b94509492505050565b600082611d555760019050611e11565b81611d635760009050611e11565b8160018114611d795760028114611d8357611db2565b6001915050611e11565b60ff841115611d9557611d94611937565b5b8360020a915084821115611dac57611dab611937565b5b50611e11565b5060208310610133831016604e8410600b8410161715611de75782820a905083811115611de257611de1611937565b5b611e11565b611df48484846001611cf2565b92509050818404811115611e0b57611e0a611937565b5b81810290505b9392505050565b6000611e23826116f3565b9150611e2e836116f3565b9250611e5b7fffffffffffffffffffffffffffffffffffffffffffffffffffffffffffffffff8484611d45565b90509291505056fe68747470733a2f2f6170692e65617274686d6574612e61692f6170692f707265736964656e742f3331363534313234343133313338323936393036343234343539393432353038313832393839a2646970667358221220007ec45b82bb427c5bd3f1210ce453cac5dbf0a4335c3213b658e89f56cc23fc64736f6c63430008110033",
  "immutableReferences": {},
  "source": "// SPDX-License-Identifier: MIT\r\npragma solidity ^0.8.7;\r\n\r\nimport \"@chainlink/contracts/src/v0.8/ChainlinkClient.sol\";\r\nimport \"@chainlink/contracts/src/v0.8/ConfirmedOwner.sol\";\r\n\r\n/**\r\n * Request testnet LINK and ETH here: https://faucets.chain.link/\r\n * Find information on LINK Token Contracts and get the latest ETH and LINK faucets here: https://docs.chain.link/docs/link-token-contracts/\r\n */\r\n\r\n/**\r\n * THIS IS AN EXAMPLE CONTRACT WHICH USES HARDCODED VALUES FOR CLARITY.\r\n * THIS EXAMPLE USES UN-AUDITED CODE.\r\n * DO NOT USE THIS CODE IN PRODUCTION.\r\n */\r\n\r\ncontract GetPresident is ChainlinkClient, ConfirmedOwner {\r\n    using Chainlink for Chainlink.Request;\r\n\r\n    address public president;\r\n    bytes32 private jobId;\r\n    uint256 private fee;\r\n\r\n    event RequestVolume(bytes32 indexed requestId, bytes volume);\r\n\r\n    /**\r\n     * @notice Initialize the link token and target oracle\r\n     *\r\n     * Goerli Testnet details:\r\n     * Link Token: 0x326C977E6efc84E512bB9C30f76E30c160eD06FB\r\n     * Oracle: 0xCC79157eb46F5624204f47AB42b3906cAA40eaB7 (Chainlink DevRel)\r\n     * jobId: ca98366cc7314957b8c012c72f05aeeb\r\n     *\r\n     */\r\n    constructor() ConfirmedOwner(msg.sender) {\r\n        setChainlinkToken(0x326C977E6efc84E512bB9C30f76E30c160eD06FB);\r\n        setChainlinkOracle(0x40193c8518BB267228Fc409a613bDbD8eC5a97b3);\r\n        jobId = \"7da2702f37fd48e5b1b9a5715e3509b6\";\r\n        fee = (1 * LINK_DIVISIBILITY) / 10; // 0,1 * 10**18 (Varies by network and job)\r\n    }\r\n\r\n    /**\r\n     * Create a Chainlink request to retrieve API response, find the target\r\n     * data, then multiply by 1000000000000000000 (to remove decimal places from data).\r\n     */\r\n    function requestVolumeData() public returns (bytes32 requestId) {\r\n        Chainlink.Request memory req = buildChainlinkRequest(\r\n            jobId,\r\n            address(this),\r\n            this.fulfill.selector\r\n        );\r\n\r\n        // Set the URL to perform the GET request on\r\n        req.add(\r\n            \"get\",\r\n            \"https://api.earthmeta.ai/api/president/31654124413138296906424459942508182989\"\r\n        );\r\n\r\n        // Set the path to find the desired data in the API response, where the response format is:\r\n        // {\"RAW\":\r\n        //   {\"ETH\":\r\n        //    {\"USD\":\r\n        //     {\r\n        //      \"VOLUME24HOUR\": xxx.xxx,\r\n        //     }\r\n        //    }\r\n        //   }\r\n        //  }\r\n        // request.add(\"path\", \"RAW.ETH.USD.VOLUME24HOUR\"); // Chainlink nodes prior to 1.0.0 support this format\r\n        req.add(\"path\", \"wallet\"); // Chainlink nodes 1.0.0 and later support this format\r\n\r\n        // Multiply the result by 1000000000000000000 to remove decimals\r\n        // int256 timesAmount = 10 ** 4;\r\n        // req.addInt(\"times\", timesAmount);\r\n\r\n        // Sends the request\r\n        return sendChainlinkRequest(req, fee);\r\n    }\r\n\r\n    /**\r\n     * Receive the response in the form of uint256\r\n     */\r\n    function fulfill(\r\n        bytes32 _requestId,\r\n        bytes memory _volume\r\n    ) public recordChainlinkFulfillment(_requestId) {\r\n        emit RequestVolume(_requestId, _volume);\r\n        president = address(uint160(bytes20(_volume)));\r\n    }\r\n\r\n    /**\r\n     * Allow withdraw of Link tokens from the contract\r\n     */\r\n    function withdrawLink() public onlyOwner {\r\n        LinkTokenInterface link = LinkTokenInterface(chainlinkTokenAddress());\r\n        require(\r\n            link.transfer(msg.sender, link.balanceOf(address(this))),\r\n            \"Unable to transfer\"\r\n        );\r\n    }\r\n}\r\n",
  "sourcePath": "C:\\Users\\DELL\\Documents\\Ethereum Projects\\ChainLink_using_Truffle\\contracts\\get_president.sol",
  "compiler": {
    "name": "solc",
    "version": "0.8.17+commit.8df45f5f.Emscripten.clang"
  },
  "schemaVersion": "3.4.10",
  "updatedAt": "2023-01-30T21:38:41.896Z",
  "networkType": "ethereum",
  "devdoc": {
    "kind": "dev",
    "methods": {},
    "version": 1
  },
  "userdoc": {
    "kind": "user",
    "methods": {
      "acceptOwnership()": {
        "notice": "Allows an ownership transfer to be completed by the recipient."
      },
      "constructor": {
        "notice": "Initialize the link token and target oracle Goerli Testnet details: Link Token: 0x326C977E6efc84E512bB9C30f76E30c160eD06FB Oracle: 0xCC79157eb46F5624204f47AB42b3906cAA40eaB7 (Chainlink DevRel) jobId: ca98366cc7314957b8c012c72f05aeeb"
      },
      "fulfill(bytes32,bytes)": {
        "notice": "Receive the response in the form of uint256"
      },
      "owner()": {
        "notice": "Get the current owner"
      },
      "requestVolumeData()": {
        "notice": "Create a Chainlink request to retrieve API response, find the target data, then multiply by 1000000000000000000 (to remove decimal places from data)."
      },
      "transferOwnership(address)": {
        "notice": "Allows an owner to begin transferring ownership to a new address, pending."
      },
      "withdrawLink()": {
        "notice": "Allow withdraw of Link tokens from the contract"
      }
    },
    "notice": "THIS IS AN EXAMPLE CONTRACT WHICH USES HARDCODED VALUES FOR CLARITY. THIS EXAMPLE USES UN-AUDITED CODE. DO NOT USE THIS CODE IN PRODUCTION.",
    "version": 1
  }
}